{
  "_format": "hh-sol-artifact-1",
  "contractName": "Tracking",
  "sourceName": "contracts/Tracking.sol",
  "abi": [
    {
      "inputs": [],
      "stateMutability": "nonpayable",
      "type": "constructor"
    },
    {
      "anonymous": false,
      "inputs": [
        {
          "indexed": true,
          "internalType": "address",
          "name": "sender",
          "type": "address"
        },
        {
          "indexed": true,
          "internalType": "address",
          "name": "receiver",
          "type": "address"
        },
        {
          "indexed": false,
          "internalType": "uint256",
          "name": "pickupTime",
          "type": "uint256"
        },
        {
          "indexed": false,
          "internalType": "uint256",
          "name": "deliveryTime",
          "type": "uint256"
        },
        {
          "indexed": false,
          "internalType": "uint256",
          "name": "distance",
          "type": "uint256"
        },
        {
          "indexed": false,
          "internalType": "uint256",
          "name": "price",
          "type": "uint256"
        }
      ],
      "name": "ShipmentCreated",
      "type": "event"
    },
    {
      "anonymous": false,
      "inputs": [
        {
          "indexed": true,
          "internalType": "address",
          "name": "sender",
          "type": "address"
        },
        {
          "indexed": true,
          "internalType": "address",
          "name": "receiver",
          "type": "address"
        },
        {
          "indexed": false,
          "internalType": "uint256",
          "name": "deliveryTime",
          "type": "uint256"
        }
      ],
      "name": "ShipmentDelivered",
      "type": "event"
    },
    {
      "anonymous": false,
      "inputs": [
        {
          "indexed": true,
          "internalType": "address",
          "name": "sender",
          "type": "address"
        },
        {
          "indexed": true,
          "internalType": "address",
          "name": "receiver",
          "type": "address"
        },
        {
          "indexed": false,
          "internalType": "uint256",
          "name": "price",
          "type": "uint256"
        }
      ],
      "name": "ShipmentPaid",
      "type": "event"
    },
    {
      "anonymous": false,
      "inputs": [
        {
          "indexed": true,
          "internalType": "address",
          "name": "sender",
          "type": "address"
        },
        {
          "indexed": true,
          "internalType": "address",
          "name": "receiver",
          "type": "address"
        },
        {
          "indexed": false,
          "internalType": "uint256",
          "name": "pickupTime",
          "type": "uint256"
        }
      ],
      "name": "ShipmentTransmit",
      "type": "event"
    },
    {
      "inputs": [
        {
          "internalType": "address",
          "name": "_sender",
          "type": "address"
        },
        {
          "internalType": "address",
          "name": "_receiver",
          "type": "address"
        },
        {
          "internalType": "uint256",
          "name": "_index",
          "type": "uint256"
        }
      ],
      "name": "CompleteShipment",
      "outputs": [],
      "stateMutability": "nonpayable",
      "type": "function"
    },
    {
      "inputs": [
        {
          "internalType": "address",
          "name": "_receiver",
          "type": "address"
        },
        {
          "internalType": "uint256",
          "name": "_pickupTime",
          "type": "uint256"
        },
        {
          "internalType": "uint256",
          "name": "_distance",
          "type": "uint256"
        },
        {
          "internalType": "uint256",
          "name": "_price",
          "type": "uint256"
        }
      ],
      "name": "createShipment",
      "outputs": [],
      "stateMutability": "payable",
      "type": "function"
    },
    {
      "inputs": [],
      "name": "getAllTransactions",
      "outputs": [
        {
          "components": [
            {
              "internalType": "address",
              "name": "sender",
              "type": "address"
            },
            {
              "internalType": "address",
              "name": "receiver",
              "type": "address"
            },
            {
              "internalType": "uint256",
              "name": "pickupTime",
              "type": "uint256"
            },
            {
              "internalType": "uint256",
              "name": "deliveryTime",
              "type": "uint256"
            },
            {
              "internalType": "uint256",
              "name": "distance",
              "type": "uint256"
            },
            {
              "internalType": "uint256",
              "name": "price",
              "type": "uint256"
            },
            {
              "internalType": "enum Tracking.ShipmentStatus",
              "name": "status",
              "type": "uint8"
            },
            {
              "internalType": "bool",
              "name": "isPaid",
              "type": "bool"
            }
          ],
          "internalType": "struct Tracking.TypeShipment[]",
          "name": "",
          "type": "tuple[]"
        }
      ],
      "stateMutability": "view",
      "type": "function"
    },
    {
      "inputs": [
        {
          "internalType": "address",
          "name": "_sender",
          "type": "address"
        },
        {
          "internalType": "uint256",
          "name": "_index",
          "type": "uint256"
        }
      ],
      "name": "getShipment",
      "outputs": [
        {
          "internalType": "address",
          "name": "sender",
          "type": "address"
        },
        {
          "internalType": "address",
          "name": "receiver",
          "type": "address"
        },
        {
          "internalType": "uint256",
          "name": "pickupTime",
          "type": "uint256"
        },
        {
          "internalType": "uint256",
          "name": "deliveryTime",
          "type": "uint256"
        },
        {
          "internalType": "uint256",
          "name": "distance",
          "type": "uint256"
        },
        {
          "internalType": "uint256",
          "name": "price",
          "type": "uint256"
        },
        {
          "internalType": "enum Tracking.ShipmentStatus",
          "name": "status",
          "type": "uint8"
        },
        {
          "internalType": "bool",
          "name": "isPaid",
          "type": "bool"
        }
      ],
      "stateMutability": "view",
      "type": "function"
    },
    {
      "inputs": [
        {
          "internalType": "address",
          "name": "_sender",
          "type": "address"
        }
      ],
      "name": "getShipmentCount",
      "outputs": [
        {
          "internalType": "uint256",
          "name": "count",
          "type": "uint256"
        }
      ],
      "stateMutability": "view",
      "type": "function"
    },
    {
      "inputs": [],
      "name": "shipmentCount",
      "outputs": [
        {
          "internalType": "uint256",
          "name": "",
          "type": "uint256"
        }
      ],
      "stateMutability": "view",
      "type": "function"
    },
    {
      "inputs": [
        {
          "internalType": "address",
          "name": "",
          "type": "address"
        },
        {
          "internalType": "uint256",
          "name": "",
          "type": "uint256"
        }
      ],
      "name": "shipments",
      "outputs": [
        {
          "internalType": "address",
          "name": "sender",
          "type": "address"
        },
        {
          "internalType": "address",
          "name": "receiver",
          "type": "address"
        },
        {
          "internalType": "uint256",
          "name": "pickupTime",
          "type": "uint256"
        },
        {
          "internalType": "uint256",
          "name": "deliveryTime",
          "type": "uint256"
        },
        {
          "internalType": "uint256",
          "name": "distance",
          "type": "uint256"
        },
        {
          "internalType": "uint256",
          "name": "price",
          "type": "uint256"
        },
        {
          "internalType": "enum Tracking.ShipmentStatus",
          "name": "status",
          "type": "uint8"
        },
        {
          "internalType": "bool",
          "name": "isPaid",
          "type": "bool"
        }
      ],
      "stateMutability": "view",
      "type": "function"
    },
    {
      "inputs": [
        {
          "internalType": "address",
          "name": "_sender",
          "type": "address"
        },
        {
          "internalType": "address",
          "name": "_receiver",
          "type": "address"
        },
        {
          "internalType": "uint256",
          "name": "_index",
          "type": "uint256"
        }
      ],
      "name": "startShipment",
      "outputs": [],
      "stateMutability": "nonpayable",
      "type": "function"
    }
  ],
  "bytecode": "0x608060405234801561001057600080fd5b506000600155610e45806100256000396000f3fe60806040526004361061007b5760003560e01c8063a5beca001161004e578063a5beca0014610121578063aace20b714610141578063b7dfd93d14610163578063cbc4b181146101835761007b565b806327506f53146100805780635667e02f146100ab5780637ff5265d146100df5780638365da5414610101575b600080fd5b34801561008c57600080fd5b50610095610196565b6040516100a29190610c12565b60405180910390f35b3480156100b757600080fd5b506100cb6100c6366004610b38565b6102a7565b6040516100a2989796959493929190610bbb565b3480156100eb57600080fd5b506100ff6100fa366004610afd565b61031a565b005b34801561010d57600080fd5b506100cb61011c366004610b38565b610486565b34801561012d57600080fd5b506100ff61013c366004610afd565b610544565b34801561014d57600080fd5b50610156610789565b6040516100a29190610dc4565b34801561016f57600080fd5b5061015661017e366004610adc565b61078f565b6100ff610191366004610b61565b6107ae565b60606002805480602002602001604051908101604052809291908181526020016000905b8282101561029e57600084815260209081902060408051610100810182526007860290920180546001600160a01b03908116845260018201541693830193909352600280840154918301919091526003830154606083015260048301546080830152600583015460a0830152600683015491929160c084019160ff9091169081111561025657634e487b7160e01b600052602160045260246000fd5b600281111561027557634e487b7160e01b600052602160045260246000fd5b815260069190910154610100900460ff16151560209182015290825260019290920191016101ba565b50505050905090565b600060205281600052604060002081815481106102c357600080fd5b600091825260209091206007909102018054600182015460028301546003840154600485015460058601546006909601546001600160a01b0395861698509490931695509093909260ff8082169161010090041688565b6001600160a01b038316600090815260208190526040812080548390811061035257634e487b7160e01b600052603260045260246000fd5b9060005260206000209060070201905060006002838154811061038557634e487b7160e01b600052603260045260246000fd5b60009182526020909120600184015460079092020191506001600160a01b038581169116146103cf5760405162461bcd60e51b81526004016103c690610d34565b60405180910390fd5b6000600683015460ff1660028111156103f857634e487b7160e01b600052602160045260246000fd5b146104155760405162461bcd60e51b81526004016103c690610cfd565b60068281018054600160ff199182168117909255918301805490921617905560028201546040516001600160a01b0386811692908816917fb68e3658b052dab26eafeae392b4a8d23d83b90e9926d787a39d5d5170fe15df9161047791610dc4565b60405180910390a35050505050565b60008060008060008060008060008060008c6001600160a01b03166001600160a01b031681526020019081526020016000208a815481106104d757634e487b7160e01b600052603260045260246000fd5b600091825260209091206007909102018054600182015460028301546003840154600485015460058601546006909601546001600160a01b039586169f50939094169c50909a50985090965090945060ff8082169450610100909104169150509295985092959890939650565b6001600160a01b038316600090815260208190526040812080548390811061057c57634e487b7160e01b600052603260045260246000fd5b906000526020600020906007020190506000600283815481106105af57634e487b7160e01b600052603260045260246000fd5b60009182526020909120600184015460079092020191506001600160a01b038581169116146105f05760405162461bcd60e51b81526004016103c690610d34565b6001600683015460ff16600281111561061957634e487b7160e01b600052602160045260246000fd5b146106365760405162461bcd60e51b81526004016103c690610d8d565b6006820154610100900460ff16156106605760405162461bcd60e51b81526004016103c690610d5e565b60068281018054600260ff1991821681179092559183018054909216179055426003808401829055820155600582015482546040516001600160a01b039091169082156108fc029083906000818181858888f193505050501580156106c9573d6000803e3d6000fd5b506006838101805461010061ff00199182168117909255918401805490921617905560038301546040516001600160a01b0387811692908916917f3746ccceb54f44c9b0ee0120e596168d07ec9f6ca303cfdd9810d3b2e2686a2e9161072e91610dc4565b60405180910390a3846001600160a01b0316866001600160a01b03167f2b6f2473aebafaf8d0889669490135928ec4454d2e29a103fd39693bbca6aef1836040516107799190610dc4565b60405180910390a3505050505050565b60015481565b6001600160a01b0381166000908152602081905260409020545b919050565b8034146107cd5760405162461bcd60e51b81526004016103c690610cb7565b6000604051806101000160405280336001600160a01b03168152602001866001600160a01b03168152602001858152602001600081526020018481526020018381526020016000600281111561083357634e487b7160e01b600052602160045260246000fd5b815260006020918201819052338152808252604080822080546001818101835591845292849020855160079094020180546001600160a01b039485166001600160a01b031991821617825594860151818301805491909516951694909417909255830151600280840191909155606084015160038401556080840151600484015560a0840151600584015560c084015160068401805495965086959193909260ff199092169184908111156108f857634e487b7160e01b600052602160045260246000fd5b021790555060e09190910151600690910180549115156101000261ff00199092169190911790556001805490600061092f83610de8565b91905055506002604051806101000160405280336001600160a01b03168152602001876001600160a01b03168152602001868152602001600081526020018581526020018481526020016000600281111561099a57634e487b7160e01b600052602160045260246000fd5b81526000602091820181905283546001818101865594825290829020835160079092020180546001600160a01b039283166001600160a01b03199182161782559284015181860180549190931693169290921790556040820151600280830191909155606083015160038301556080830151600483015560a0830151600583015560c0830151600683018054949593949193909260ff19909216918490811115610a5457634e487b7160e01b600052602160045260246000fd5b021790555060e08201518160060160016101000a81548160ff0219169083151502179055505050846001600160a01b0316336001600160a01b03167f2947526c14d41e26bf003d7ef7432e8c1448e669cef3671dc4d1230c541be64386600087876040516104779493929190610dcd565b80356001600160a01b03811681146107a957600080fd5b600060208284031215610aed578081fd5b610af682610ac5565b9392505050565b600080600060608486031215610b11578182fd5b610b1a84610ac5565b9250610b2860208501610ac5565b9150604084013590509250925092565b60008060408385031215610b4a578182fd5b610b5383610ac5565b946020939093013593505050565b60008060008060808587031215610b76578081fd5b610b7f85610ac5565b966020860135965060408601359560600135945092505050565b60038110610bb757634e487b7160e01b600052602160045260246000fd5b9052565b6001600160a01b0389811682528816602082015260408101879052606081018690526080810185905260a081018490526101008101610bfd60c0830185610b99565b82151560e08301529998505050505050505050565b602080825282518282018190526000919060409081850190868401855b82811015610caa57815180516001600160a01b0390811686528782015116878601528581015186860152606080820151908601526080808201519086015260a0808201519086015260c080820151610c8982880182610b99565b505060e0908101511515908501526101009093019290850190600101610c2f565b5091979650505050505050565b60208082526026908201527f5061796d656e74206d757374206265206d61746368656420776974682074686560408201526520707269636560d01b606082015260800190565b6020808252601c908201527f536869706d656e7420616c726561647920696e207472616e736d697400000000604082015260600190565b60208082526010908201526f24b73b30b634b2103932b1b2b4bb32b960811b604082015260600190565b60208082526015908201527414da1a5c1b595b9d08185b1c9958591e481c185a59605a1b604082015260600190565b60208082526018908201527f536869706d656e74206e6f7420696e207472616e736d69740000000000000000604082015260600190565b90815260200190565b93845260208401929092526040830152606082015260800190565b6000600019821415610e0857634e487b7160e01b81526011600452602481fd5b506001019056fea264697066735822122033ddafbe59040cd93495449aba2600ee496e1d0abf9e7db8533101ccc4dad9e864736f6c63430008000033",
  "linkReferences": {},
  "deployedLinkReferences": {}
}